{
  "_format": "hh-sol-artifact-1",
  "contractName": "Thistle",
  "sourceName": "contracts/Thistle.sol",
  "abi": [
    {
      "inputs": [
        {
          "internalType": "string",
          "name": "_name",
          "type": "string"
        },
        {
          "internalType": "string",
          "name": "_symbol",
          "type": "string"
        },
        {
          "internalType": "string",
          "name": "_uri",
          "type": "string"
        }
      ],
      "stateMutability": "nonpayable",
      "type": "constructor"
    },
    {
      "anonymous": false,
      "inputs": [
        {
          "indexed": true,
          "internalType": "address",
          "name": "owner",
          "type": "address"
        },
        {
          "indexed": true,
          "internalType": "address",
          "name": "approved",
          "type": "address"
        },
        {
          "indexed": true,
          "internalType": "uint256",
          "name": "tokenId",
          "type": "uint256"
        }
      ],
      "name": "Approval",
      "type": "event"
    },
    {
      "anonymous": false,
      "inputs": [
        {
          "indexed": true,
          "internalType": "address",
          "name": "owner",
          "type": "address"
        },
        {
          "indexed": true,
          "internalType": "address",
          "name": "operator",
          "type": "address"
        },
        {
          "indexed": false,
          "internalType": "bool",
          "name": "approved",
          "type": "bool"
        }
      ],
      "name": "ApprovalForAll",
      "type": "event"
    },
    {
      "anonymous": false,
      "inputs": [
        {
          "indexed": true,
          "internalType": "address",
          "name": "from",
          "type": "address"
        },
        {
          "indexed": true,
          "internalType": "address",
          "name": "to",
          "type": "address"
        },
        {
          "indexed": true,
          "internalType": "uint256",
          "name": "tokenId",
          "type": "uint256"
        }
      ],
      "name": "Transfer",
      "type": "event"
    },
    {
      "inputs": [
        {
          "internalType": "address",
          "name": "to",
          "type": "address"
        },
        {
          "internalType": "uint256",
          "name": "tokenId",
          "type": "uint256"
        }
      ],
      "name": "approve",
      "outputs": [],
      "stateMutability": "nonpayable",
      "type": "function"
    },
    {
      "inputs": [
        {
          "internalType": "address",
          "name": "owner",
          "type": "address"
        }
      ],
      "name": "balanceOf",
      "outputs": [
        {
          "internalType": "uint256",
          "name": "",
          "type": "uint256"
        }
      ],
      "stateMutability": "view",
      "type": "function"
    },
    {
      "inputs": [
        {
          "internalType": "uint256",
          "name": "tokenId",
          "type": "uint256"
        }
      ],
      "name": "burn",
      "outputs": [],
      "stateMutability": "nonpayable",
      "type": "function"
    },
    {
      "inputs": [
        {
          "internalType": "uint256",
          "name": "tokenId",
          "type": "uint256"
        }
      ],
      "name": "getApproved",
      "outputs": [
        {
          "internalType": "address",
          "name": "",
          "type": "address"
        }
      ],
      "stateMutability": "view",
      "type": "function"
    },
    {
      "inputs": [
        {
          "internalType": "address",
          "name": "owner",
          "type": "address"
        },
        {
          "internalType": "address",
          "name": "operator",
          "type": "address"
        }
      ],
      "name": "isApprovedForAll",
      "outputs": [
        {
          "internalType": "bool",
          "name": "",
          "type": "bool"
        }
      ],
      "stateMutability": "view",
      "type": "function"
    },
    {
      "inputs": [],
      "name": "name",
      "outputs": [
        {
          "internalType": "string",
          "name": "",
          "type": "string"
        }
      ],
      "stateMutability": "view",
      "type": "function"
    },
    {
      "inputs": [
        {
          "internalType": "uint256",
          "name": "tokenId",
          "type": "uint256"
        }
      ],
      "name": "ownerOf",
      "outputs": [
        {
          "internalType": "address",
          "name": "",
          "type": "address"
        }
      ],
      "stateMutability": "view",
      "type": "function"
    },
    {
      "inputs": [
        {
          "internalType": "address",
          "name": "from",
          "type": "address"
        },
        {
          "internalType": "address",
          "name": "to",
          "type": "address"
        },
        {
          "internalType": "uint256",
          "name": "tokenId",
          "type": "uint256"
        }
      ],
      "name": "safeTransferFrom",
      "outputs": [],
      "stateMutability": "nonpayable",
      "type": "function"
    },
    {
      "inputs": [
        {
          "internalType": "address",
          "name": "from",
          "type": "address"
        },
        {
          "internalType": "address",
          "name": "to",
          "type": "address"
        },
        {
          "internalType": "uint256",
          "name": "tokenId",
          "type": "uint256"
        },
        {
          "internalType": "bytes",
          "name": "data",
          "type": "bytes"
        }
      ],
      "name": "safeTransferFrom",
      "outputs": [],
      "stateMutability": "nonpayable",
      "type": "function"
    },
    {
      "inputs": [
        {
          "internalType": "address",
          "name": "operator",
          "type": "address"
        },
        {
          "internalType": "bool",
          "name": "approved",
          "type": "bool"
        }
      ],
      "name": "setApprovalForAll",
      "outputs": [],
      "stateMutability": "nonpayable",
      "type": "function"
    },
    {
      "inputs": [
        {
          "internalType": "bytes4",
          "name": "interfaceId",
          "type": "bytes4"
        }
      ],
      "name": "supportsInterface",
      "outputs": [
        {
          "internalType": "bool",
          "name": "",
          "type": "bool"
        }
      ],
      "stateMutability": "view",
      "type": "function"
    },
    {
      "inputs": [],
      "name": "symbol",
      "outputs": [
        {
          "internalType": "string",
          "name": "",
          "type": "string"
        }
      ],
      "stateMutability": "view",
      "type": "function"
    },
    {
      "inputs": [
        {
          "internalType": "uint256",
          "name": "tokenId",
          "type": "uint256"
        }
      ],
      "name": "tokenURI",
      "outputs": [
        {
          "internalType": "string",
          "name": "",
          "type": "string"
        }
      ],
      "stateMutability": "view",
      "type": "function"
    },
    {
      "inputs": [
        {
          "internalType": "address",
          "name": "from",
          "type": "address"
        },
        {
          "internalType": "address",
          "name": "to",
          "type": "address"
        },
        {
          "internalType": "uint256",
          "name": "tokenId",
          "type": "uint256"
        }
      ],
      "name": "transferFrom",
      "outputs": [],
      "stateMutability": "nonpayable",
      "type": "function"
    }
  ],
  "bytecode": "0x60806040523480156200001157600080fd5b50604051620036703803806200367083398181016040528101906200003791906200077c565b828281600090816200004a919062000a80565b5080600190816200005c919062000a80565b505050620000723360016200008e60201b60201c565b62000085600182620000b460201b60201c565b50505062000fae565b620000b08282604051806020016040528060008152506200012e60201b60201c565b5050565b620000c5826200019c60201b60201c565b62000107576040517f08c379a0000000000000000000000000000000000000000000000000000000008152600401620000fe9062000bee565b60405180910390fd5b8060066000848152602001908152602001600020908162000129919062000a80565b505050565b6200014083836200020860201b60201c565b6200015560008484846200040160201b60201c565b62000197576040517f08c379a00000000000000000000000000000000000000000000000000000000081526004016200018e9062000c86565b60405180910390fd5b505050565b60008073ffffffffffffffffffffffffffffffffffffffff166002600084815260200190815260200160002060009054906101000a900473ffffffffffffffffffffffffffffffffffffffff1673ffffffffffffffffffffffffffffffffffffffff1614159050919050565b600073ffffffffffffffffffffffffffffffffffffffff168273ffffffffffffffffffffffffffffffffffffffff16036200027a576040517f08c379a0000000000000000000000000000000000000000000000000000000008152600401620002719062000cf8565b60405180910390fd5b6200028b816200019c60201b60201c565b15620002ce576040517f08c379a0000000000000000000000000000000000000000000000000000000008152600401620002c59062000d6a565b60405180910390fd5b620002e260008383620005aa60201b60201c565b6001600360008473ffffffffffffffffffffffffffffffffffffffff1673ffffffffffffffffffffffffffffffffffffffff168152602001908152602001600020600082825462000334919062000dbb565b92505081905550816002600083815260200190815260200160002060006101000a81548173ffffffffffffffffffffffffffffffffffffffff021916908373ffffffffffffffffffffffffffffffffffffffff160217905550808273ffffffffffffffffffffffffffffffffffffffff16600073ffffffffffffffffffffffffffffffffffffffff167fddf252ad1be2c89b69c2b068fc378daa952ba7f163c4a11628f55a4df523b3ef60405160405180910390a4620003fd60008383620005af60201b60201c565b5050565b60006200042f8473ffffffffffffffffffffffffffffffffffffffff16620005b460201b620009561760201c565b156200059d578373ffffffffffffffffffffffffffffffffffffffff1663150b7a0262000461620005d760201b60201c565b8786866040518563ffffffff1660e01b815260040162000485949392919062000ecb565b6020604051808303816000875af1925050508015620004c457506040513d601f19601f82011682018060405250810190620004c1919062000f7c565b60015b6200054c573d8060008114620004f7576040519150601f19603f3d011682016040523d82523d6000602084013e620004fc565b606091505b50600081510362000544576040517f08c379a00000000000000000000000000000000000000000000000000000000081526004016200053b9062000c86565b60405180910390fd5b805181602001fd5b63150b7a0260e01b7bffffffffffffffffffffffffffffffffffffffffffffffffffffffff1916817bffffffffffffffffffffffffffffffffffffffffffffffffffffffff191614915050620005a2565b600190505b949350505050565b505050565b505050565b6000808273ffffffffffffffffffffffffffffffffffffffff163b119050919050565b600033905090565b6000604051905090565b600080fd5b600080fd5b600080fd5b600080fd5b6000601f19601f8301169050919050565b7f4e487b7100000000000000000000000000000000000000000000000000000000600052604160045260246000fd5b6200064882620005fd565b810181811067ffffffffffffffff821117156200066a57620006696200060e565b5b80604052505050565b60006200067f620005df565b90506200068d82826200063d565b919050565b600067ffffffffffffffff821115620006b057620006af6200060e565b5b620006bb82620005fd565b9050602081019050919050565b60005b83811015620006e8578082015181840152602081019050620006cb565b83811115620006f8576000848401525b50505050565b6000620007156200070f8462000692565b62000673565b905082815260208101848484011115620007345762000733620005f8565b5b62000741848285620006c8565b509392505050565b600082601f830112620007615762000760620005f3565b5b815162000773848260208601620006fe565b91505092915050565b600080600060608486031215620007985762000797620005e9565b5b600084015167ffffffffffffffff811115620007b957620007b8620005ee565b5b620007c78682870162000749565b935050602084015167ffffffffffffffff811115620007eb57620007ea620005ee565b5b620007f98682870162000749565b925050604084015167ffffffffffffffff8111156200081d576200081c620005ee565b5b6200082b8682870162000749565b9150509250925092565b600081519050919050565b7f4e487b7100000000000000000000000000000000000000000000000000000000600052602260045260246000fd5b600060028204905060018216806200088857607f821691505b6020821081036200089e576200089d62000840565b5b50919050565b60008190508160005260206000209050919050565b60006020601f8301049050919050565b600082821b905092915050565b600060088302620009087fffffffffffffffffffffffffffffffffffffffffffffffffffffffffffffffff82620008c9565b620009148683620008c9565b95508019841693508086168417925050509392505050565b6000819050919050565b6000819050919050565b6000620009616200095b62000955846200092c565b62000936565b6200092c565b9050919050565b6000819050919050565b6200097d8362000940565b620009956200098c8262000968565b848454620008d6565b825550505050565b600090565b620009ac6200099d565b620009b981848462000972565b505050565b5b81811015620009e157620009d5600082620009a2565b600181019050620009bf565b5050565b601f82111562000a3057620009fa81620008a4565b62000a0584620008b9565b8101602085101562000a15578190505b62000a2d62000a2485620008b9565b830182620009be565b50505b505050565b600082821c905092915050565b600062000a556000198460080262000a35565b1980831691505092915050565b600062000a70838362000a42565b9150826002028217905092915050565b62000a8b8262000835565b67ffffffffffffffff81111562000aa75762000aa66200060e565b5b62000ab382546200086f565b62000ac0828285620009e5565b600060209050601f83116001811462000af8576000841562000ae3578287015190505b62000aef858262000a62565b86555062000b5f565b601f19841662000b0886620008a4565b60005b8281101562000b325784890151825560018201915060208501945060208101905062000b0b565b8683101562000b52578489015162000b4e601f89168262000a42565b8355505b6001600288020188555050505b505050505050565b600082825260208201905092915050565b7f45524337323155524953746f726167653a2055524920736574206f66206e6f6e60008201527f6578697374656e7420746f6b656e000000000000000000000000000000000000602082015250565b600062000bd6602e8362000b67565b915062000be38262000b78565b604082019050919050565b6000602082019050818103600083015262000c098162000bc7565b9050919050565b7f4552433732313a207472616e7366657220746f206e6f6e20455243373231526560008201527f63656976657220696d706c656d656e7465720000000000000000000000000000602082015250565b600062000c6e60328362000b67565b915062000c7b8262000c10565b604082019050919050565b6000602082019050818103600083015262000ca18162000c5f565b9050919050565b7f4552433732313a206d696e7420746f20746865207a65726f2061646472657373600082015250565b600062000ce060208362000b67565b915062000ced8262000ca8565b602082019050919050565b6000602082019050818103600083015262000d138162000cd1565b9050919050565b7f4552433732313a20746f6b656e20616c7265616479206d696e74656400000000600082015250565b600062000d52601c8362000b67565b915062000d5f8262000d1a565b602082019050919050565b6000602082019050818103600083015262000d858162000d43565b9050919050565b7f4e487b7100000000000000000000000000000000000000000000000000000000600052601160045260246000fd5b600062000dc8826200092c565b915062000dd5836200092c565b9250827fffffffffffffffffffffffffffffffffffffffffffffffffffffffffffffffff0382111562000e0d5762000e0c62000d8c565b5b828201905092915050565b600073ffffffffffffffffffffffffffffffffffffffff82169050919050565b600062000e458262000e18565b9050919050565b62000e578162000e38565b82525050565b62000e68816200092c565b82525050565b600081519050919050565b600082825260208201905092915050565b600062000e978262000e6e565b62000ea3818562000e79565b935062000eb5818560208601620006c8565b62000ec081620005fd565b840191505092915050565b600060808201905062000ee2600083018762000e4c565b62000ef1602083018662000e4c565b62000f00604083018562000e5d565b818103606083015262000f14818462000e8a565b905095945050505050565b60007fffffffff0000000000000000000000000000000000000000000000000000000082169050919050565b62000f568162000f1f565b811462000f6257600080fd5b50565b60008151905062000f768162000f4b565b92915050565b60006020828403121562000f955762000f94620005e9565b5b600062000fa58482850162000f65565b91505092915050565b6126b28062000fbe6000396000f3fe608060405234801561001057600080fd5b50600436106100ea5760003560e01c80636352211e1161008c578063a22cb46511610066578063a22cb4651461025b578063b88d4fde14610277578063c87b56dd14610293578063e985e9c5146102c3576100ea565b80636352211e146101dd57806370a082311461020d57806395d89b411461023d576100ea565b8063095ea7b3116100c8578063095ea7b31461016d57806323b872dd1461018957806342842e0e146101a557806342966c68146101c1576100ea565b806301ffc9a7146100ef57806306fdde031461011f578063081812fc1461013d575b600080fd5b610109600480360381019061010491906117c7565b6102f3565b604051610116919061180f565b60405180910390f35b610127610305565b60405161013491906118c3565b60405180910390f35b6101576004803603810190610152919061191b565b610397565b6040516101649190611989565b60405180910390f35b610187600480360381019061018291906119d0565b6103dd565b005b6101a3600480360381019061019e9190611a10565b6104f4565b005b6101bf60048036038101906101ba9190611a10565b610554565b005b6101db60048036038101906101d6919061191b565b610574565b005b6101f760048036038101906101f2919061191b565b61063e565b6040516102049190611989565b60405180910390f35b61022760048036038101906102229190611a63565b6106ef565b6040516102349190611a9f565b60405180910390f35b6102456107a6565b60405161025291906118c3565b60405180910390f35b61027560048036038101906102709190611ae6565b610838565b005b610291600480360381019061028c9190611c5b565b61084e565b005b6102ad60048036038101906102a8919061191b565b6108b0565b6040516102ba91906118c3565b60405180910390f35b6102dd60048036038101906102d89190611cde565b6108c2565b6040516102ea919061180f565b60405180910390f35b60006102fe82610979565b9050919050565b60606000805461031490611d4d565b80601f016020809104026020016040519081016040528092919081815260200182805461034090611d4d565b801561038d5780601f106103625761010080835404028352916020019161038d565b820191906000526020600020905b81548152906001019060200180831161037057829003601f168201915b5050505050905090565b60006103a282610a5b565b6004600083815260200190815260200160002060009054906101000a900473ffffffffffffffffffffffffffffffffffffffff169050919050565b60006103e88261063e565b90508073ffffffffffffffffffffffffffffffffffffffff168373ffffffffffffffffffffffffffffffffffffffff1603610458576040517f08c379a000000000000000000000000000000000000000000000000000000000815260040161044f90611df0565b60405180910390fd5b8073ffffffffffffffffffffffffffffffffffffffff16610477610aa6565b73ffffffffffffffffffffffffffffffffffffffff1614806104a657506104a5816104a0610aa6565b6108c2565b5b6104e5576040517f08c379a00000000000000000000000000000000000000000000000000000000081526004016104dc90611e82565b60405180910390fd5b6104ef8383610aae565b505050565b6105056104ff610aa6565b82610b67565b610544576040517f08c379a000000000000000000000000000000000000000000000000000000000815260040161053b90611f14565b60405180910390fd5b61054f838383610bfc565b505050565b61056f8383836040518060200160405280600081525061084e565b505050565b61057d81610e62565b6105bc576040517f08c379a00000000000000000000000000000000000000000000000000000000081526004016105b390611fa6565b60405180910390fd5b3373ffffffffffffffffffffffffffffffffffffffff166105dc8261063e565b73ffffffffffffffffffffffffffffffffffffffff1614610632576040517f08c379a000000000000000000000000000000000000000000000000000000000815260040161062990612038565b60405180910390fd5b61063b81610ece565b50565b6000806002600084815260200190815260200160002060009054906101000a900473ffffffffffffffffffffffffffffffffffffffff169050600073ffffffffffffffffffffffffffffffffffffffff168173ffffffffffffffffffffffffffffffffffffffff16036106e6576040517f08c379a00000000000000000000000000000000000000000000000000000000081526004016106dd906120a4565b60405180910390fd5b80915050919050565b60008073ffffffffffffffffffffffffffffffffffffffff168273ffffffffffffffffffffffffffffffffffffffff160361075f576040517f08c379a000000000000000000000000000000000000000000000000000000000815260040161075690612136565b60405180910390fd5b600360008373ffffffffffffffffffffffffffffffffffffffff1673ffffffffffffffffffffffffffffffffffffffff168152602001908152602001600020549050919050565b6060600180546107b590611d4d565b80601f01602080910402602001604051908101604052809291908181526020018280546107e190611d4d565b801561082e5780601f106108035761010080835404028352916020019161082e565b820191906000526020600020905b81548152906001019060200180831161081157829003601f168201915b5050505050905090565b61084a610843610aa6565b8383610eda565b5050565b61085f610859610aa6565b83610b67565b61089e576040517f08c379a000000000000000000000000000000000000000000000000000000000815260040161089590611f14565b60405180910390fd5b6108aa84848484611046565b50505050565b60606108bb826110a2565b9050919050565b6000600560008473ffffffffffffffffffffffffffffffffffffffff1673ffffffffffffffffffffffffffffffffffffffff16815260200190815260200160002060008373ffffffffffffffffffffffffffffffffffffffff1673ffffffffffffffffffffffffffffffffffffffff16815260200190815260200160002060009054906101000a900460ff16905092915050565b6000808273ffffffffffffffffffffffffffffffffffffffff163b119050919050565b60007f80ac58cd000000000000000000000000000000000000000000000000000000007bffffffffffffffffffffffffffffffffffffffffffffffffffffffff1916827bffffffffffffffffffffffffffffffffffffffffffffffffffffffff19161480610a4457507f5b5e139f000000000000000000000000000000000000000000000000000000007bffffffffffffffffffffffffffffffffffffffffffffffffffffffff1916827bffffffffffffffffffffffffffffffffffffffffffffffffffffffff1916145b80610a545750610a53826111b4565b5b9050919050565b610a6481610e62565b610aa3576040517f08c379a0000000000000000000000000000000000000000000000000000000008152600401610a9a906120a4565b60405180910390fd5b50565b600033905090565b816004600083815260200190815260200160002060006101000a81548173ffffffffffffffffffffffffffffffffffffffff021916908373ffffffffffffffffffffffffffffffffffffffff160217905550808273ffffffffffffffffffffffffffffffffffffffff16610b218361063e565b73ffffffffffffffffffffffffffffffffffffffff167f8c5be1e5ebec7d5bd14f71427d1e84f3dd0314c0f7b2291e5b200ac8c7c3b92560405160405180910390a45050565b600080610b738361063e565b90508073ffffffffffffffffffffffffffffffffffffffff168473ffffffffffffffffffffffffffffffffffffffff161480610bb55750610bb481856108c2565b5b80610bf357508373ffffffffffffffffffffffffffffffffffffffff16610bdb84610397565b73ffffffffffffffffffffffffffffffffffffffff16145b91505092915050565b8273ffffffffffffffffffffffffffffffffffffffff16610c1c8261063e565b73ffffffffffffffffffffffffffffffffffffffff1614610c72576040517f08c379a0000000000000000000000000000000000000000000000000000000008152600401610c69906121c8565b60405180910390fd5b600073ffffffffffffffffffffffffffffffffffffffff168273ffffffffffffffffffffffffffffffffffffffff1603610ce1576040517f08c379a0000000000000000000000000000000000000000000000000000000008152600401610cd89061225a565b60405180910390fd5b610cec83838361121e565b610cf7600082610aae565b6001600360008573ffffffffffffffffffffffffffffffffffffffff1673ffffffffffffffffffffffffffffffffffffffff1681526020019081526020016000206000828254610d4791906122a9565b925050819055506001600360008473ffffffffffffffffffffffffffffffffffffffff1673ffffffffffffffffffffffffffffffffffffffff1681526020019081526020016000206000828254610d9e91906122dd565b92505081905550816002600083815260200190815260200160002060006101000a81548173ffffffffffffffffffffffffffffffffffffffff021916908373ffffffffffffffffffffffffffffffffffffffff160217905550808273ffffffffffffffffffffffffffffffffffffffff168473ffffffffffffffffffffffffffffffffffffffff167fddf252ad1be2c89b69c2b068fc378daa952ba7f163c4a11628f55a4df523b3ef60405160405180910390a4610e5d838383611223565b505050565b60008073ffffffffffffffffffffffffffffffffffffffff166002600084815260200190815260200160002060009054906101000a900473ffffffffffffffffffffffffffffffffffffffff1673ffffffffffffffffffffffffffffffffffffffff1614159050919050565b610ed781611228565b50565b8173ffffffffffffffffffffffffffffffffffffffff168373ffffffffffffffffffffffffffffffffffffffff1603610f48576040517f08c379a0000000000000000000000000000000000000000000000000000000008152600401610f3f9061237f565b60405180910390fd5b80600560008573ffffffffffffffffffffffffffffffffffffffff1673ffffffffffffffffffffffffffffffffffffffff16815260200190815260200160002060008473ffffffffffffffffffffffffffffffffffffffff1673ffffffffffffffffffffffffffffffffffffffff16815260200190815260200160002060006101000a81548160ff0219169083151502179055508173ffffffffffffffffffffffffffffffffffffffff168373ffffffffffffffffffffffffffffffffffffffff167f17307eab39ab6107e8899845ad3d59bd9653f200f220920489ca2b5937696c3183604051611039919061180f565b60405180910390a3505050565b611051848484610bfc565b61105d8484848461127b565b61109c576040517f08c379a000000000000000000000000000000000000000000000000000000000815260040161109390612411565b60405180910390fd5b50505050565b60606110ad82610a5b565b60006006600084815260200190815260200160002080546110cd90611d4d565b80601f01602080910402602001604051908101604052809291908181526020018280546110f990611d4d565b80156111465780601f1061111b57610100808354040283529160200191611146565b820191906000526020600020905b81548152906001019060200180831161112957829003601f168201915b505050505090506000611157611402565b9050600081510361116c5781925050506111af565b6000825111156111a157808260405160200161118992919061246d565b604051602081830303815290604052925050506111af565b6111aa84611419565b925050505b919050565b60007f01ffc9a7000000000000000000000000000000000000000000000000000000007bffffffffffffffffffffffffffffffffffffffffffffffffffffffff1916827bffffffffffffffffffffffffffffffffffffffffffffffffffffffff1916149050919050565b505050565b505050565b61123181611481565b600060066000838152602001908152602001600020805461125190611d4d565b9050146112785760066000828152602001908152602001600020600061127791906116fe565b5b50565b600061129c8473ffffffffffffffffffffffffffffffffffffffff16610956565b156113f5578373ffffffffffffffffffffffffffffffffffffffff1663150b7a026112c5610aa6565b8786866040518563ffffffff1660e01b81526004016112e794939291906124e6565b6020604051808303816000875af192505050801561132357506040513d601f19601f820116820180604052508101906113209190612547565b60015b6113a5573d8060008114611353576040519150601f19603f3d011682016040523d82523d6000602084013e611358565b606091505b50600081510361139d576040517f08c379a000000000000000000000000000000000000000000000000000000000815260040161139490612411565b60405180910390fd5b805181602001fd5b63150b7a0260e01b7bffffffffffffffffffffffffffffffffffffffffffffffffffffffff1916817bffffffffffffffffffffffffffffffffffffffffffffffffffffffff1916149150506113fa565b600190505b949350505050565b606060405180602001604052806000815250905090565b606061142482610a5b565b600061142e611402565b9050600081511161144e5760405180602001604052806000815250611479565b806114588461159e565b60405160200161146992919061246d565b6040516020818303038152906040525b915050919050565b600061148c8261063e565b905061149a8160008461121e565b6114a5600083610aae565b6001600360008373ffffffffffffffffffffffffffffffffffffffff1673ffffffffffffffffffffffffffffffffffffffff16815260200190815260200160002060008282546114f591906122a9565b925050819055506002600083815260200190815260200160002060006101000a81549073ffffffffffffffffffffffffffffffffffffffff021916905581600073ffffffffffffffffffffffffffffffffffffffff168273ffffffffffffffffffffffffffffffffffffffff167fddf252ad1be2c89b69c2b068fc378daa952ba7f163c4a11628f55a4df523b3ef60405160405180910390a461159a81600084611223565b5050565b6060600082036115e5576040518060400160405280600181526020017f300000000000000000000000000000000000000000000000000000000000000081525090506116f9565b600082905060005b6000821461161757808061160090612574565b915050600a8261161091906125eb565b91506115ed565b60008167ffffffffffffffff81111561163357611632611b30565b5b6040519080825280601f01601f1916602001820160405280156116655781602001600182028036833780820191505090505b5090505b600085146116f25760018261167e91906122a9565b9150600a8561168d919061261c565b603061169991906122dd565b60f81b8183815181106116af576116ae61264d565b5b60200101907effffffffffffffffffffffffffffffffffffffffffffffffffffffffffffff1916908160001a905350600a856116eb91906125eb565b9450611669565b8093505050505b919050565b50805461170a90611d4d565b6000825580601f1061171c575061173b565b601f01602090049060005260206000209081019061173a919061173e565b5b50565b5b8082111561175757600081600090555060010161173f565b5090565b6000604051905090565b600080fd5b600080fd5b60007fffffffff0000000000000000000000000000000000000000000000000000000082169050919050565b6117a48161176f565b81146117af57600080fd5b50565b6000813590506117c18161179b565b92915050565b6000602082840312156117dd576117dc611765565b5b60006117eb848285016117b2565b91505092915050565b60008115159050919050565b611809816117f4565b82525050565b60006020820190506118246000830184611800565b92915050565b600081519050919050565b600082825260208201905092915050565b60005b83811015611864578082015181840152602081019050611849565b83811115611873576000848401525b50505050565b6000601f19601f8301169050919050565b60006118958261182a565b61189f8185611835565b93506118af818560208601611846565b6118b881611879565b840191505092915050565b600060208201905081810360008301526118dd818461188a565b905092915050565b6000819050919050565b6118f8816118e5565b811461190357600080fd5b50565b600081359050611915816118ef565b92915050565b60006020828403121561193157611930611765565b5b600061193f84828501611906565b91505092915050565b600073ffffffffffffffffffffffffffffffffffffffff82169050919050565b600061197382611948565b9050919050565b61198381611968565b82525050565b600060208201905061199e600083018461197a565b92915050565b6119ad81611968565b81146119b857600080fd5b50565b6000813590506119ca816119a4565b92915050565b600080604083850312156119e7576119e6611765565b5b60006119f5858286016119bb565b9250506020611a0685828601611906565b9150509250929050565b600080600060608486031215611a2957611a28611765565b5b6000611a37868287016119bb565b9350506020611a48868287016119bb565b9250506040611a5986828701611906565b9150509250925092565b600060208284031215611a7957611a78611765565b5b6000611a87848285016119bb565b91505092915050565b611a99816118e5565b82525050565b6000602082019050611ab46000830184611a90565b92915050565b611ac3816117f4565b8114611ace57600080fd5b50565b600081359050611ae081611aba565b92915050565b60008060408385031215611afd57611afc611765565b5b6000611b0b858286016119bb565b9250506020611b1c85828601611ad1565b9150509250929050565b600080fd5b600080fd5b7f4e487b7100000000000000000000000000000000000000000000000000000000600052604160045260246000fd5b611b6882611879565b810181811067ffffffffffffffff82111715611b8757611b86611b30565b5b80604052505050565b6000611b9a61175b565b9050611ba68282611b5f565b919050565b600067ffffffffffffffff821115611bc657611bc5611b30565b5b611bcf82611879565b9050602081019050919050565b82818337600083830152505050565b6000611bfe611bf984611bab565b611b90565b905082815260208101848484011115611c1a57611c19611b2b565b5b611c25848285611bdc565b509392505050565b600082601f830112611c4257611c41611b26565b5b8135611c52848260208601611beb565b91505092915050565b60008060008060808587031215611c7557611c74611765565b5b6000611c83878288016119bb565b9450506020611c94878288016119bb565b9350506040611ca587828801611906565b925050606085013567ffffffffffffffff811115611cc657611cc561176a565b5b611cd287828801611c2d565b91505092959194509250565b60008060408385031215611cf557611cf4611765565b5b6000611d03858286016119bb565b9250506020611d14858286016119bb565b9150509250929050565b7f4e487b7100000000000000000000000000000000000000000000000000000000600052602260045260246000fd5b60006002820490506001821680611d6557607f821691505b602082108103611d7857611d77611d1e565b5b50919050565b7f4552433732313a20617070726f76616c20746f2063757272656e74206f776e6560008201527f7200000000000000000000000000000000000000000000000000000000000000602082015250565b6000611dda602183611835565b9150611de582611d7e565b604082019050919050565b60006020820190508181036000830152611e0981611dcd565b9050919050565b7f4552433732313a20617070726f76652063616c6c6572206973206e6f7420746f60008201527f6b656e206f776e6572206e6f7220617070726f76656420666f7220616c6c0000602082015250565b6000611e6c603e83611835565b9150611e7782611e10565b604082019050919050565b60006020820190508181036000830152611e9b81611e5f565b9050919050565b7f4552433732313a2063616c6c6572206973206e6f7420746f6b656e206f776e6560008201527f72206e6f7220617070726f766564000000000000000000000000000000000000602082015250565b6000611efe602e83611835565b9150611f0982611ea2565b604082019050919050565b60006020820190508181036000830152611f2d81611ef1565b9050919050565b7f52656465656d20717565727920666f72206e6f6e6578697374656e7420746f6b60008201527f656e000000000000000000000000000000000000000000000000000000000000602082015250565b6000611f90602283611835565b9150611f9b82611f34565b604082019050919050565b60006020820190508181036000830152611fbf81611f83565b9050919050565b7f596f7520617265206e6f7420746865206f776e6572206f66207468697320746f60008201527f6b656e0000000000000000000000000000000000000000000000000000000000602082015250565b6000612022602383611835565b915061202d82611fc6565b604082019050919050565b6000602082019050818103600083015261205181612015565b9050919050565b7f4552433732313a20696e76616c696420746f6b656e2049440000000000000000600082015250565b600061208e601883611835565b915061209982612058565b602082019050919050565b600060208201905081810360008301526120bd81612081565b9050919050565b7f4552433732313a2061646472657373207a65726f206973206e6f74206120766160008201527f6c6964206f776e65720000000000000000000000000000000000000000000000602082015250565b6000612120602983611835565b915061212b826120c4565b604082019050919050565b6000602082019050818103600083015261214f81612113565b9050919050565b7f4552433732313a207472616e736665722066726f6d20696e636f72726563742060008201527f6f776e6572000000000000000000000000000000000000000000000000000000602082015250565b60006121b2602583611835565b91506121bd82612156565b604082019050919050565b600060208201905081810360008301526121e1816121a5565b9050919050565b7f4552433732313a207472616e7366657220746f20746865207a65726f2061646460008201527f7265737300000000000000000000000000000000000000000000000000000000602082015250565b6000612244602483611835565b915061224f826121e8565b604082019050919050565b6000602082019050818103600083015261227381612237565b9050919050565b7f4e487b7100000000000000000000000000000000000000000000000000000000600052601160045260246000fd5b60006122b4826118e5565b91506122bf836118e5565b9250828210156122d2576122d161227a565b5b828203905092915050565b60006122e8826118e5565b91506122f3836118e5565b9250827fffffffffffffffffffffffffffffffffffffffffffffffffffffffffffffffff038211156123285761232761227a565b5b828201905092915050565b7f4552433732313a20617070726f766520746f2063616c6c657200000000000000600082015250565b6000612369601983611835565b915061237482612333565b602082019050919050565b600060208201905081810360008301526123988161235c565b9050919050565b7f4552433732313a207472616e7366657220746f206e6f6e20455243373231526560008201527f63656976657220696d706c656d656e7465720000000000000000000000000000602082015250565b60006123fb603283611835565b91506124068261239f565b604082019050919050565b6000602082019050818103600083015261242a816123ee565b9050919050565b600081905092915050565b60006124478261182a565b6124518185612431565b9350612461818560208601611846565b80840191505092915050565b6000612479828561243c565b9150612485828461243c565b91508190509392505050565b600081519050919050565b600082825260208201905092915050565b60006124b882612491565b6124c2818561249c565b93506124d2818560208601611846565b6124db81611879565b840191505092915050565b60006080820190506124fb600083018761197a565b612508602083018661197a565b6125156040830185611a90565b818103606083015261252781846124ad565b905095945050505050565b6000815190506125418161179b565b92915050565b60006020828403121561255d5761255c611765565b5b600061256b84828501612532565b91505092915050565b600061257f826118e5565b91507fffffffffffffffffffffffffffffffffffffffffffffffffffffffffffffffff82036125b1576125b061227a565b5b600182019050919050565b7f4e487b7100000000000000000000000000000000000000000000000000000000600052601260045260246000fd5b60006125f6826118e5565b9150612601836118e5565b925082612611576126106125bc565b5b828204905092915050565b6000612627826118e5565b9150612632836118e5565b925082612642576126416125bc565b5b828206905092915050565b7f4e487b7100000000000000000000000000000000000000000000000000000000600052603260045260246000fdfea264697066735822122001894adfa12c4b93a7797fcef231eee29558861655af2f805a2f238c5c9f5c6964736f6c634300080f0033",
  "linkReferences": {},
  "deployedLinkReferences": {}
}